:020000040800F2
:100000004805002049010008A9250008BB22000876
:10001000A5250008450A0008312A00080000000054
:10002000000000000000000000000000D9250008CA
:10003000490A000800000000AD250008DB25000883
:100040006301000863010008630100086301000800
:1000500063010008630100086301000863010008F0
:1000600063010008630100086301000863010008E0
:1000700063010008630100086301000863010008D0
:1000800063010008630100086301000863010008C0
:1000900063010008630100086301000863010008B0
:1000A00063010008630100086301000863010008A0
:1000B0006301000863010008630100086301000890
:1000C0006301000863010008630100086301000880
:1000D0006301000863010008630100086301000870
:1000E0006301000863010008630100086301000860
:1000F0006301000863010008630100086301000850
:10010000630100086301000863010008630100083F
:10011000630100086301000863010008630100082F
:10012000630100086301000863010008630100081F
:10013000DFF810D000F08CFB00480047452D000888
:10014000AFF3008048050020064880470648004776
:10015000FEE7FEE7FEE7FEE7FEE7FEE7FEE7FEE777
:10016000FEE7FEE74D26000831010008202A04DBE7
:10017000203A21FA02F00021704721FA02F3D04020
:10018000C2F120029140084319467047D2B201E003
:1001900000F8012B491EFBD270470022F6E710B58C
:1001A00013460A4604461946FFF7F0FF204610BDE5
:1001B000F0B480EA0102D40F4200B2EB410F02D248
:1001C0000246084611464A0042D0C30DDDB2C1F3D3
:1001D000C752AD1A202D35DAC1F3160141F40002E1
:1001E00004B15242C5F1200602FA06F12A41104438
:1001F000B3EBD05F23D0C4B1012DA0EBC35009DC19
:10020000F0BC4FF0004202EAC352DBB200F500003E
:1002100000F0C3B9400000F1807000EBC350A0F1C2
:10022000807040EAD170490009E0490841EAC07194
:10023000A0EBC35000F50000400800EBC350F0BC39
:1002400000F0A2B96142012202EB4101001BF6E776
:10025000F0BC704781F00041AAE780F00040A7E7BA
:100260002DE9FE4F81EA030404F0004421F000412F
:1002700000944FF0000B23F0004350EA01045ED0DD
:1002800052EA03045BD0C3F30A54C1F30A552C4469
:10029000A4F2F3340194A0FB0254C1F3130141F41E
:1002A0008011C3F3130343F4801301FB024400FBEA
:1002B000034E840A970A44EA815447EA8357A4FB11
:1002C000076802958D0A05FB07854FEA932C04FB0E
:1002D0000C542705029D4FEA065847EA1637B5EB3E
:1002E00008056EEB070C870E920E47EA811742EA6B
:1002F0008312A7FB0201B6EB0B0164EB00042B0D8C
:1003000043EA0C335E1844EB1C50DA465146E7FBD7
:100310000201C5F313044FEA0B3343EA14534FEAC7
:100320000432019C43EA0603A4F10C040294009CED
:10033000CDE900B400F06EF903B0BDE8F08F002005
:100340000146F9E72DE9F04D81EA030404F0004B82
:1003500021F0004514464FF0000A23F0004150EA16
:10036000050220D054EA01021DD0C5F30A57024607
:10037000C5F31303C1F31300C1F30A5640F480150B
:1003800043F48013A7EB0608101BD64608F2FD388D
:1003900073EB050002D308F1010801E092185B41FC
:1003A000B8F1000F03DA00200146BDE8F08D00200F
:1003B0004FF48011064684460EE0171B73EB0507C9
:1003C00005D3121B63EB050306434CEA010C4908F5
:1003D0004FEA300092185B4150EA0107EDD152EA32
:1003E000030012D082EA040083EA0501084305D025
:1003F000101BAB4106D20122002306E000224FF081
:10040000004302E06FF0010253101AEB06004CEBC0
:10041000085110EB0A0041EB0B01BDE8F04D00F074
:10042000EAB8C10F80EAE0700844CA0796230021A9
:1004300000F0B3B896230022114600F0AEB80EB516
:1004400040F2334102910021CDE900110A460B46EA
:1004500000F0E0F803B000BD00F0004220F00040E2
:10046000C10DC0F3160040F400007F2901DA00201E
:100470007047962903DCC1F19601C84001E0963926
:100480008840002AF4D04042704770B5C1F30A5248
:1004900001F000450024C1F3130140F2FF3341F4A1
:1004A00080119A4201DA002070BD40F233439A4233
:1004B000A2F2334203DC5242FFF758FE00E09040C4
:1004C0002C43F1D0404270BD00F0004230F00040BB
:1004D0000AD0C10D01F56071C0F3160042EA015166
:1004E000C2084007114370470020014670470000D2
:1004F00030B5041E71F1000404DB4FF000444042AB
:1005000064EB0101141E73F1000405DB1C464FF07F
:100510000043524263EB04038B4208BF824230BD6A
:1005200030B5041E71F1000404DB4FF0004440427A
:1005300064EB0101141E73F1000405DB1C464FF04F
:100540000043524263EB0403994208BF904230BD1E
:1005500001F0004330B421F0004150EA010206D01E
:100560000A0DA2F56072C1F31301002A02DC30BC4F
:1005700000207047440F44EAC104C100E01830BCB9
:1005800000EBC250AFF300800029A8BF7047401CA9
:10059000490008BF20F00100704710B4B0FA80FC99
:1005A00000FA0CF050EA010404BF10BC704749B1D6
:1005B000CCF1200421FA04F411FA0CF118BF012146
:1005C00021430843A3EB0C01CB1D4FEA00614FEA26
:1005D000102042BF002010BC704700EBC3501044F5
:1005E0000029A4BF10BC7047401C490008BF20F080
:1005F000010010BC704710B5141E73F1000408DA36
:10060000401C41F1000192185B411A4301D120F0D6
:10061000010010BD2DE9F04D92469B4611B1B1FA93
:1006200081F202E0B0FA80F22032904600F022F926
:1006300004460F4640EA0A0041EA0B0153465A4677
:10064000084313D0114653EA010019D0C8F1400203
:100650005046FFF78BFD05460E465046594642462A
:1006600000F008F9084305D0012004E0204639468F
:10067000BDE8F08D0020054346EAE0762C43374381
:100680000A986305E40AA0EB08000022FD0A44EA88
:1006900047540A3002D500200146E9E70105101948
:1006A0006941DDE9084500196941BDE8F04DA2E75F
:1006B0002DE9FE4F804681EA0300C00F0C460090F2
:1006C00021F0004123F00045B8EB0200A94105D21A
:1006D0004046214690461C460B46024623F0004009
:1006E000104347D0270DC7F30A00C3F30A51029005
:1006F000401A019040286BDAC3F3130040F4801BCA
:100700000098924620B10023D2EB030A63EB0B0B57
:1007100001985946C0F14002504600F0ABF8064639
:100720000D4650465946019A00F0B3F810EB080008
:100730006141002487EA115284EAE7731A4340D0EA
:10074000009A62B3019A012A4FEA075215DC001B96
:1007500061EB02014FF0004202EA0752CDE900428C
:10076000001C41F5801132462B46FFF753FF03B0C2
:10077000BDE8F08F40462146F9E7001B61EB02011E
:10078000001C41F5801300185B412018A2F50017EA
:1007900047EB030140EAD570B6196D4111E06D08D1
:1007A0004FEA360645EAC0754FEA0752001B61EB77
:1007B0000201001C41F5801149084FEA3000001980
:1007C000514132462B4603B0BDE8F04FFFF713BF4F
:1007D0000098012240000023D0EB020263EBE0739B
:1007E000009821464FEAE074B8EB000061EB040189
:1007F000E9E783F000435BE781F0004158E770B51B
:1008000021F0004303430CD0C1F30A550024D5EB7B
:10081000040564EB0403D617AD1AB34102DB0020D4
:10082000014670BD201841EB025170BD0EB5C10FDD
:1008300080EAE0700844CA07002140F233438DE8A3
:100840000E000A460B46FFF7E5FE03B000BD0000B0
:10085000064C074D06E0E06840F0010394E807000D
:1008600098471034AC42F6D3FFF766FC50390008C5
:1008700070390008202A04DB203A00FA02F1002037
:1008800070479140C2F1200320FA03F319439040CE
:100890007047202A06DBCB17203A41FA02F043EAE0
:1008A000E07306E041FA02F3D040C2F12002914029
:1008B0000843194670472DE9F04D00231A461B1ACC
:1008C0008A4103DB00200146BDE8F08DC1F30A52E6
:1008D000C1F3130141F480154FF0000BD10702D191
:1008E00000186D41521E0027044640F2FF113846A1
:1008F00001EB620A3E468046024600204FF480111A
:10090000FFF734FCC2197141BB1846EB0100B4EB90
:10091000030C75EB000C04D3E41A65EB00051746D5
:100920000E46241908F101006D4180463428E3DDAC
:10093000F91946EB0600091BA84103D24FF0FF321C
:10094000134601E0002213461BEB070046EB0A5159
:10095000BDE8F04DFFF74FBE70B504460025206896
:10096000806800F0010018B32068806820F0010062
:100970002168886000F084FC054613E000F080FCEC
:10098000401B02280ED92068806800F0010048B1A1
:10099000A06A40F01000A062E06A40F00100E0624E
:1009A000012070BD2068806800F001000028E5D1BA
:1009B0000020F6E738B504460025002000902068A6
:1009C000806800F0010078BB2068806840F001007A
:1009D00021688860194800681949B0FBF1F000905F
:1009E00002E00098401E009000980028F9D100F025
:1009F00047FC054619E000F043FC401B022814D9CF
:100A00002068806800F0010078B9A06A40F010000A
:100A1000A062E06A40F00100E06200BF002084F8BC
:100A2000240000BF012038BD05E02068806800F088
:100A300001000028DFD00020F5E700000C000020B6
:100A400040420F0000BFFEE7704772B600BFFEE7EE
:100A500038B5024600230020009000BF92F8240021
:100A6000012801D1022038BD012082F8240000BFF6
:100A70004868072812D21068406B0C79641E04EB9A
:100A800084051F24AC40A0430D796D1E05EB850540
:100A90000C68AC4020431468606327E048680D2868
:100AA00012D21068006B0C79E41F04EB84051F243C
:100AB000AC40A0430D79ED1F05EB85050C68AC40FB
:100AC00020431468206311E01068C06A0C790D3C63
:100AD00004EB84051F24AC40A0430D790D3D05EBCC
:100AE00085050C68AC4020431468E06208680A2859
:100AF00012D31068C0680C780A3C04EB4405072444
:100B0000AC40A0430D780A3D05EB45058C68AC4030
:100B100020431468E0600FE0106800690C7804EB73
:100B200044050724AC40A0430D7805EB45058C68CF
:100B3000AC402043146820610868102802D008687F
:100B4000112827D1174C1068A0421ED11068806868
:100B500000F40000F0B91068806840F400001468E8
:100B6000A0600868102815D10F4800680F4CB0FB32
:100B7000F4F000EB80004000009002E00098401E7E
:100B8000009000980028F9D104E0906A40F020001D
:100B90009062012300BF002082F8240000BF1846A5
:100BA00061E70000002401400C00002040420F00DB
:100BB00001460868C06C70472DE9F04104460027E3
:100BC00000250026A84614B90120BDE8F081A068E0
:100BD00010B1207D00B100BFA06A30B90020E062F2
:100BE00084F82400204600F097F82046FFF7B4FE72
:100BF0000746A06A00F01000002873D1002F7ED1B4
:100C0000A06A20F4885040F00200A0623F4AD4E974
:100C10000001904208D1E069B0F5402F02D14FF4B5
:100C2000002002E0E06900E0E0690143207B41EA46
:100C300040000643A068B0F5807F02D0A06801287C
:100C400002D14FF4807000E000200543207D012890
:100C500011D1207B38B9A069401E4FF4006141EAF0
:100C60004030054307E0A06A40F02000A062E06A3F
:100C700040F00100E0622068406820F469402843A9
:100C80002168486020688068214908403043216815
:100C90008860A068B0F5807F02D0A068012802D1EA
:100CA0004FF4807000E00020B0F5807F03D1208AEF
:100CB000401E4FEA00582068C06A20F4700040EAE5
:100CC00008002168C8622068806812490840B04264
:100CD00009D10020E062A06A20F0020040F001008B
:100CE000A06211E00BE0A06A20F0020040F01000CA
:100CF000A062E06A40F00100E062012704E0A06A1F
:100D000040F01000A062012738465EE7003C014039
:100D1000FDF7E1FFFE0E1FFF10B586B00446002070
:100D2000029003900490059028492068884223D1BE
:100D300000BF2748806940F4007025498861084653
:100D4000806900F40070019000BF00BF00BF08463A
:100D5000806940F0040088610846806900F0040062
:100D6000019000BF00BF012002900320039002A960
:100D7000184800F0DFF826E017492068884222D1A1
:100D800000BF1348806940F48060114988610846BB
:100D9000806900F48060019000BF00BF00BF08467A
:100DA000806940F0040088610846806900F0040012
:100DB000019000BF00BF022002900320039002A90F
:100DC000044800F0B7F806B010BD00000024014050
:100DD00000100240000801400028014070B50446A0
:100DE000002500BF94F82400012801D1022070BD25
:100DF000012084F8240000BF2046FFF7DBFD0546F4
:100E0000002D77D1A06A40F20121884340F4807020
:100E1000A0623C492068884208D13B48006800F441
:100E2000702008B9012002E0002000E0012078B124
:100E3000A06A20F48010A0622068406800F48060FE
:100E400000B3A06A20F4005040F48050A06219E082
:100E5000A06A40F48010A0622B49091F20688842D4
:100E600003D028492068884204D12748006800F44C
:100E7000806000E0002028B1A06A20F4005040F417
:100E80008050A062A06A00F4805020B1E06A20F097
:100E90000600E06201E00020E06200BF002084F86C
:100EA000240000BFC01E216808602068806800F42C
:100EB0006020B0F5602F16D112492068884208D111
:100EC0001148006800F4702008B9012002E00020F9
:100ED00000E0012038B12068806840F4A00021685B
:100EE00088600CE006E02068806840F4801021688B
:100EF000886004E000BF002084F8240000BF28467A
:100F000075E70000002801400424014070B5044644
:100F100000F0B6F906462546681C10B10448007872
:100F2000054400BF00F0ACF9801BA842FAD370BDA5
:100F3000080000202DE9F847024600239C467BE18B
:100F40004FF0010808FA03F4D1F8008008EA040021
:100F5000A0427DD1DFF8F4A2D1F80480A8EB0A0901
:100F6000D0453AD014DCB8F1030F50D009DCB8F109
:100F7000000F31D0B8F1010F1CD0B8F1020F49D1E8
:100F800020E0B8F1110F18D0B8F1120F42D11EE0D5
:100F9000B9F5881F25D006DCB9F5803F20D0B9F51A
:100FA000801F37D11AE0B9F5001F18D0B9F5041F1A
:100FB00030D117E0D1F80CC02DE0D1F80C8008F149
:100FC000040C28E0D1F80C8008F1080C23E0D1F8DB
:100FD0000C8008F10C0C1EE000BF00BF00BF00BF7A
:100FE00000BF00BFD1F80880B8F1000F02D14FF068
:100FF000040C0BE0D1F80880B8F1010F03D14FF0D9
:10100000080C146102E04FF0080C546103E04FF04B
:10101000000C00E000BF00BFFF2801D8904601E0AF
:1010200002F104084646FF2802D84FEA830803E08D
:10103000A3F108084FEA88084746D6F800804FF029
:101040000F0909FA07F928EA09080CFA07F900E07C
:101050007AE048EA0908C6F80080D1F8048008F070
:101060008058B8F1805F6FD100BFDFF8E481D8F815
:10107000188048F00108DFF8D891C9F81880C846F0
:10108000D8F8188008F00108CDF8008000BF00BF34
:101090004FEAB9384FEA930958F829504FEA837854
:1010A0004FEA18794FF00F0808FA09F825EA080501
:1010B000DFF8A081424502D14FF0000824E0DFF8BC
:1010C0009881424502D14FF001081DE0DFF88C8184
:1010D000424502D14FF0020816E0DFF88481424514
:1010E00002D14FF003080FE0DFF87881424502D1CA
:1010F0004FF0040808E0DFF87081424502D14FF05C
:10110000050801E04FF006084FEA83794FEA1979A4
:1011100008FA09F848EA0505DFF850814FEA930913
:1011200048F82950D1F8048008F48038B8F5803F99
:101130000BD1DFF83C81D8F8008048EA0008DFF8DE
:101140003091C9F800800AE075E0DFF82481D8F812
:10115000008028EA0008DFF81891C9F80080D1F86B
:10116000048008F40038B8F5003F0ED1DFF80081A4
:1011700008F10408D8F8008048EA0008DFF8F09089
:1011800009F10409C9F800800DE0DFF8E48008F1F6
:101190000408D8F8008028EA0008DFF8D49009F1A4
:1011A0000409C9F80080D1F8048008F48018B8F563
:1011B000801F0ED1DFF8B88008F10808D8F8008049
:1011C00048EA0008DFF8A89009F10809C9F800808A
:1011D0000DE0DFF89C8008F10808D8F8008028EAC4
:1011E0000008DFF88C9009F10809C9F80080D1F8EF
:1011F000048008F40018B8F5001F0ED1DFF87080E5
:1012000008F10C08D8F8008048EA0008DFF8609080
:1012100009F10C09C9F800800DE0DFF8548008F1ED
:101220000C08D8F8008028EA0008DFF8449009F19B
:101230000C09C9F800805B1CD1F8008028FA03F87B
:10124000B8F1000F7FF47CAEBDE8F8870000111004
:101250000010024000080140000C01400010014055
:101260000014014000180140001C0140080001402A
:10127000000401400AB1016101E00B040361704701
:101280000148006870470000000000200348006823
:1012900003490978084401490860704700000020AC
:1012A0000800002010B50848006840F0100006490A
:1012B0000860032000F098F8002000F007F800F024
:1012C0002BF8002010BD00000020024070B504463D
:1012D0000E4800784FF47A71B1FBF0F00C490968C0
:1012E000B1FBF0F5284600F093FC08B1012070BD79
:1012F000102C07D200222146501E00F037F8054876
:10130000046001E00120F2E70020F0E7080000207F
:101310000C0000200400002008B500BF11488069BF
:1013200040F001000F4988610846806900F0010023
:10133000009000BF00BF00BF0846C06940F0805069
:10134000C8610846C06900F08050009000BF00BF2F
:1013500000BF0549486820F0E06040F00070486038
:1013600000BF08BD00100240000001402DE9F05F01
:1013700080460D461646002701F070FB07463946A9
:101380002A46334601F00700C0F1070ABAF1040FFC
:1013900002D94FF0040A01E0C0F1070AD14600F17A
:1013A000040ABAF1070F02D24FF0000A01E0A0F1DF
:1013B000030AD4464FF0010A0AFA09FAAAF1010A0F
:1013C0000AEA020A0AFA0CFA4FF0010B0BFA0CFBBC
:1013D000ABF1010B0BEA030B4AEA0B042146404632
:1013E00001F044FBBDE8F09F00BF00F00702064B90
:1013F00019684FF6FF031940044B0B4343EA0221DF
:10140000014B196000BF70470CED00E00000FA05C9
:10141000F8B5044600260025207800F001000028D9
:101420006BD000274348C06900F0805070B900BFFE
:101430004048C06940F080503E49C8610846C069D4
:1014400000F08050009000BF00BF01273A480068BC
:1014500000F48070B0B93848006840F480703649B4
:101460000860FFF70DFF064606E0FFF709FF801B47
:10147000642801D90320F8BD2F48006800F480706B
:101480000028F2D02B48006A00F440752DB3A088E4
:1014900000F44070A84220D02648006A20F440752D
:1014A000012026490860002008602248056205F0F6
:1014B000010090B1FFF7E4FE064608E0FFF7E0FE0A
:1014C000801B41F28831884201D90320D3E71948B3
:1014D000006A00F002000028F0D01648006A20F4EC
:1014E00040706168084313490862012F04D108461F
:1014F000C06920F08050C86100BF207800F0020071
:10150000022807D10B48406820F44040A1680843F6
:1015100008494860207800F01000102807D10548DD
:10152000406820F480006169084302494860002057
:10153000A1E7000000100240007000404004424259
:1015400070B504460D460CB9012070BD5A480068BC
:1015500000F00700A8420ED25748006820F00700AC
:101560002843554908600846006800F00700A84273
:1015700001D00120E9E7207800F0020002281DD107
:10158000207800F00400042805D14C48406840F45D
:10159000E0604A494860207800F00800082805D13A
:1015A0004648406840F460504449486043484068B9
:1015B00020F0F000A168084340494860207800F01E
:1015C000010078B36068012806D13C48006800F447
:1015D000003090B90120B8E76068022806D137488A
:1015E000006800F0007040B90120AEE733480068A1
:1015F00000F0020008B90120A7E73048406820F059
:101600000300616808432D494860FFF739FE06462C
:1016100009E0FFF735FE801B41F28831884202D98C
:10162000032092E707E02548406800F00C0061685D
:10163000B0EB810FEDD12048006800F00700A84210
:101640000ED91D48006820F0070028431A49086099
:101650000846006800F00700A84201D0012074E7A6
:10166000207800F00400042807D11448406820F4D2
:10167000E060E168084311494860207800F0080004
:10168000082808D10D48406820F46050216940EADC
:10169000C1000A49486000F03FF808494968C1F3B1
:1016A0000311074A515CC8400649086006480068B3
:1016B000FFF70CFE002048E7002002400010024027
:1016C000A83800080C000020040000200148006831
:1016D000704700000C00002000B5FFF7F7FF044939
:1016E0004968C1F30221034A515CC84000BD0000B3
:1016F00000100240B838000800B5FFF7E7FF0449C2
:101700004968C1F3C221034A515CC84000BD0000D2
:1017100000100240B8380008F0B585B00FF26C0C2C
:101720009CE8E01001A8A0E8E0101CA52D68009539
:1017300000210022002300240020194D696801F0D7
:101740000C05F5B1042D02D0082D19D101E0154882
:1017500019E001ADC1F38346AC5D01F4803555B1AC
:101760000F4D6D68C5F340451DF805200D4D6543CF
:10177000B5FBF2F302E00C4D04FB05F3184602E062
:1017800000BF084800BF00BF05B0F0BD020304055C
:10179000060708090A0B0C0D0E0F101001020000BD
:1017A0000010024000127A0000093D00F8B504461E
:1017B0000CB90120F8BD207800F00100002878D095
:1017C000F848406800F00C0004280CD0F548406848
:1017D00000F00C00082811D1F248406800F4803075
:1017E000B0F5803F0AD1EF48006800F400300028CF
:1017F0005FD0606800285CD10120DBE700BF606833
:10180000B0F5803F06D1E748006840F48030E549F4
:10181000086028E0606858B9E248006820F4803029
:10182000E04908600846006820F4802008601AE05B
:101830006068B0F5A02F0BD1DA48006840F4802032
:10184000D84908600846006840F4803008600AE023
:10185000D448006820F48030D24908600846006807
:1018600020F48020086000BF606888B1FFF708FDA1
:10187000054606E0FFF704FD401B642801D903205C
:1018800098E7C848006800F400300028F2D010E063
:10189000FFF7F6FC054606E0FFF7F2FC401B642864
:1018A00001D9032086E7BF48006800F40030002813
:1018B000F2D1207800F00200022857D1B9484068E0
:1018C00000F00C0050B1B748406800F00C00082848
:1018D00018D1B448406800F4803098B9B148006825
:1018E00000F0020020B12069012801D0012061E749
:1018F000AC48006820F0F800616940EAC100A949DD
:10190000086033E02069E8B10120A7490860FFF7CB
:10191000B7FC054606E0FFF7B3FC401B022801D9DF
:10192000032047E79F48006800F002000028F2D03B
:101930009C48006820F0F800616940EAC1009949BC
:10194000086013E0002098490860FFF799FC0546FD
:1019500006E0FFF795FC401B022801D9032029E788
:101960009048006800F002000028F2D1207800F0D2
:10197000080008282DD1A069B8B101208B49086062
:10198000FFF77EFC054606E0FFF77AFC401B0228C5
:1019900001D903200EE78348406A00F002000028C6
:1019A000F2D0012000F004FE13E000207F4908601F
:1019B000FFF766FC054606E0FFF762FC401B0228C5
:1019C00001D90320F6E67748406A00F002000028BB
:1019D000F2D1207800F00400042873D10027714868
:1019E000C06900F0805070B900BF6E48C06940F017
:1019F00080506C49C8610846C06900F08050009072
:101A000000BF00BF01276A48006800F48070B0B9C9
:101A10006748006840F4807065490860FFF730FC53
:101A2000054606E0FFF72CFC401B642801D9032083
:101A3000C0E65F48006800F480700028F2D000BF64
:101A4000E068012806D15748006A40F00100554976
:101A5000086227E0E06858B95248006A20F00100A7
:101A6000504908620846006A20F00400086219E044
:101A7000E06805280BD14B48006A40F00400494952
:101A800008620846006A40F0010008620AE0454822
:101A9000006A20F00100434908620846006A20F00D
:101AA0000400086200BFE068A0B1FFF7E9FB05464B
:101AB00009E0FFF7E5FB401B41F28831884202D97B
:101AC000032077E622E03748006A00F00200002891
:101AD000EFD012E0FFF7D4FB054608E0FFF7D0FB9C
:101AE000401B41F28831884201D9032062E62D482B
:101AF000006A00F002000028F0D1012F05D129482A
:101B0000C06920F080502749C86100BFE069C8B3B0
:101B10002448406800F00C00082860D0E0690228E2
:101B200048D1002020490866FFF7AAFB054606E0D9
:101B3000FFF7A6FB401B022801D903203AE619480B
:101B4000006800F000700028F2D1206AB0F5803FF4
:101B500007D11448406820F40030A16808431149B7
:101B60004860D4E9080108430E49496821F474111A
:101B700008430C49486001200B490866FFF780FBC9
:101B8000054607E03DE0FFF77BFB401B022801D93B
:101B900003200FE60348006800F000700028F2D030
:101BA0002FE0000000100240000042428004424248
:101BB00000700040002014490866FFF761FB0546ED
:101BC00006E0FFF75DFB401B022801D90320F1E589
:101BD0000E48006800F000700028F2D111E0E069C2
:101BE000012800D1E6E50948466806F48031206AFC
:101BF000814204D106F47011606A814201D0012053
:101C0000D8E50020D6E50000000042420010024066
:101C100070B504462546681EB0F1807F01D30120CF
:101C20000FE0681E4FF0E02148610F214FF0FF30B8
:101C300000F01CFF00204FF0E021886107200861C0
:101C4000002070BD30B502460B4600BF92F83C0044
:101C5000012801D1022030BD012082F83C0000BFE4
:101C6000022082F83D00106844681068816824F002
:101C700070041868044310684460144D1068A8424A
:101C800013D0134D1068A8420FD01068B0F1804FE8
:101C90000BD0104D1068A84207D00F4D1068A84215
:101CA00003D00E4D1068A84205D121F0800158687C
:101CB000014310688160012082F83D0000BF0020D0
:101CC00082F83C0000BF00BFC5E70000002C0140C7
:101CD000003401400004004000080040000C0040B7
:101CE00010B586B004460020029003900490059041
:101CF0002068B0F1804F21D100BF2448806940F0B6
:101D00000800224988610846806900F008000190B7
:101D100000BF00BF0820029002200390059002A996
:101D20001B48FFF707F900BF1A49486820F44070C4
:101D300040F0E06040F48070486025E0164920687B
:101D4000884221D100BF1148806940F008000F4946
:101D500088610846806900F00800019000BF00BF5C
:101D60001020029002200390059002A90848FFF776
:101D7000E1F800BF0749486820F4406040F0E060A7
:101D800040F40060486000BF06B010BD0010024083
:101D9000000C0140000001400004004070B5044602
:101DA0000D46164600BF94F83C00012801D10220E0
:101DB00070BD012084F83C0000BF36B1042E1BD05A
:101DC000082E31D00C2E5ED145E02946206800F067
:101DD0009FFC2068806940F00800216888612068C5
:101DE000806920F004002168886120688069296981
:101DF00008432168886147E02946206800F0C0FC5C
:101E00002068806940F400602168886120688069EA
:101E100020F480602168886120688069296940EA2F
:101E20000120216888612FE02946206800F0E6FC47
:101E30002068C06940F008002168C8612068C06956
:101E400020F004002168C8612068C069296908433E
:101E50002168C86118E02946206800F00BFD206861
:101E6000C06940F400602168C8612068C06920F43E
:101E700080602168C8612068C069296940EA012042
:101E80002168C86100E000BF00BF00BF002084F8E7
:101E90003C0000BF00BF8BE710B504460CB9012021
:101EA00010BD94F83D0028B9002084F83C0020467D
:101EB00000F026F8022084F83D00211D206800F083
:101EC000C7FB012084F8460000BF84F83E000121D2
:101ED0003F200155402001554120015500BF00BF62
:101EE000012084F84200432001554420015545203B
:101EF000015500BF012084F83D000020D0E700001C
:101F000008B50168B1F1804F0DD100BF0F49C96913
:101F100041F001010D4AD1611146C96901F0010189
:101F2000009100BF11E00A4A016891420DD100BF43
:101F30000649C96941F00201044AD1611146C969E3
:101F400001F00201009100BF00BF08BD0010024077
:101F50000004004070B504460D4615B994F83E00E3
:101F60000BE0042D02D13F20005D06E0082D02D1D8
:101F70004020005D01E04120005D012801D00120EA
:101F800070BD1DB9022084F83E000EE0042D03D17F
:101F900002213F20015508E0082D03D102214020F5
:101FA000015502E002214120015501222946206805
:101FB00000F09CFB1F492068884203D01E4920681E
:101FC000884201D1012000E0002028B12068406C47
:101FD00040F400402168486416492068884213D0C4
:101FE0001549206888420FD02068B0F1804F0BD08F
:101FF00012492068884207D011492068884203D0DE
:102000001049206888420CD12068806800F00706DB
:10201000062E0CD02068006840F00100216808609E
:1020200005E02068006840F0010021680860002099
:10203000A6E70000002C01400034014000040040ED
:1020400000080040000C004030B504460D46002258
:102050002946206800F04AFB23492068884203D0C3
:1020600022492068884201D1012000E0002090B17F
:1020700000BF2068006A41F21111084050B9206881
:10208000006A8910084028B92068406C20F400409C
:102090002168486400BF00BF2068006A41F2111146
:1020A000084050B92068006A8910084028B92068A3
:1020B000006820F001002168086000BF1DB9012000
:1020C00084F83E000EE0042D03D101213F2001558C
:1020D00008E0082D03D101214020015502E0012133
:1020E00041200155002030BD002C0140003401404A
:1020F00010B504460CB9012010BDA06900B100E084
:1021000000BF94F83D0028B9002084F83C00204628
:1021100000F028F8242084F83D002068C06820F4EE
:1021200000502168C860204600F0CEFB206800699E
:1021300020F49040216808612068406920F02A005E
:10214000216848612068C06840F400502168C86078
:1021500000202064202084F83D0084F83E00002008
:10216000CAE7000010B586B0044600200290039034
:10217000049005901949206888422DD100BF184865
:10218000C06940F400301649C8610846C06900F4CF
:102190000030019000BF00BF00BF0846806940F0DA
:1021A000040088610846806900F00400019000BFC7
:1021B00000BF04200290022003900320059002A992
:1021C0000848FEF7B7FE0820029000200390049014
:1021D00002A90448FEF7AEFE06B010BD0044004060
:1021E00000100240000801402DE9F84F04460E4659
:1021F000174699464FF0000A94F83D0020285AD11E
:1022000006B117B90120BDE8F88F00BF94F83C0073
:10221000012801D10220F6E7012084F83C0000BF2C
:1022200000202064212084F83D00FFF729F8824631
:10223000A784E784A068B0F5805F04D1206910B955
:102240000025B04602E035464FF0000800BF0020F0
:1022500084F83C0000BF1BE053460022802120464A
:10226000CDF8009000F0AEFB08B10320CBE745B9F4
:10227000B8F80000C0F308002168486008F10208BF
:1022800003E02878216848606D1CE08C401EE084E3
:10229000E08C0028E0D15346002240212046CDF8B2
:1022A000009000F08FFB08B10320ACE7202084F8F9
:1022B0003D000020A7E70220A5E700BFFEE70000E1
:1022C0000EB500200090019002901248124908605B
:1022D000002111488160017301754FF46021C161D3
:1022E00000200D49486001210B480161FEF764FCA4
:1022F00008B1FEF7AAFB0020009001200190002009
:10230000029069460448FEF7A3FB08B1FEF79DFB67
:102310000EBD000000240140140000200EB5002076
:102320000090019002901148114908600021104866
:102330008160017301754FF46021C16100200C4977
:10234000486001210A480161FEF736FC08B1FEF73A
:102350007CFB012000900190002002906946044817
:10236000FEF776FB08B1FEF770FB0EBD00280140BA
:102370004400002000B585B0002001900290039039
:10238000049000BF3748806940F0100035498861EB
:102390000846806900F01000009000BF00BF00BF39
:1023A0000846806940F0200088610846806900F096
:1023B0002000009000BF00BF00BF0846806940F0C9
:1023C000040088610846806900F00400009000BFA6
:1023D00000BF00BF0846806940F0080088610846D9
:1023E000806900F00800009000BF00BF002220219B
:1023F0001D48FEF73FFF00224FF480611B48FEF7A7
:1024000039FF4FF40050019000200290039001A981
:102410001748FEF78FFD2020019001200290002038
:1024200003900220049001A90F48FEF783FD4FF4AA
:10243000806001900120029000200390022004900F
:1024400001A90A48FEF776FD4FF4E0500190002004
:1024500002900120039001A90548FEF76BFD05B02D
:1024600000BD00000010024000080140000C0140C7
:102470000010014000B589B00020079008901C2191
:102480006846FDF78AFE4FF0804018490860072033
:1024900048600021154881600921C1600021016167
:1024A00080218161FFF7F8FC08B1FEF7CEFA002029
:1024B0000790089007A90D48FFF7C4FB08B1FEF785
:1024C000C4FA602000900520019000200290049042
:1024D000042269460548FFF761FC08B1FEF7B5FA2A
:1024E0000248FFF7FDFB09B000BD000074000020AA
:1024F00000B589B00020079008901C216846FDF7C0
:102500004CFE18481849086007204860002116480A
:1025100081600921C1600021016180218161FFF793
:10252000BBFC08B1FEF791FA00200790089007A9BC
:102530000D48FFF787FB08B1FEF787FA602000908F
:102540000420019000200290049000226946064871
:10255000FFF724FC08B1FEF778FA0348FFF7C0FB49
:1025600009B000BD00040040BC00002010B50B48BD
:102570000B4908604FF4E130486000210848816051
:10258000C16001610C21416100218161C161FFF7DE
:10259000AFFD08B1FEF759FA10BD0000004400403D
:1025A0000401002000BFFEE700BFFEE77047000007
:1025B00008B508490968C9084FF47A72B1FBF2F10D
:1025C0004143009100BF00BF00994A1E00920029BC
:1025D000F9D108BD0C000020704710B5FEF756FE7B
:1025E00010BD00B595B028210BA8FDF7D6FD14212C
:1025F00006A8FDF7D2FD18216846FDF7CEFD0120A3
:102600000B9000040C90002012900BA8FFF7CEF85E
:1026100008B1FEF71AFA0F2006900120079000205B
:10262000089009900A90002106A8FEF789FF08B1DA
:10263000FEF70BFA02200090002002906846FEF799
:10264000E7FE08B1FEF701FA15B000BD70470000C3
:1026500010B50268204B98420ED0204B98420BD008
:10266000B0F1804F08D01E4B984205D01D4B9842C8
:1026700002D01D4B984203D122F070024B681A43DE
:10268000154B98420ED0154B98420BD0B0F1804FAD
:1026900008D0134B984205D0124B984202D0124BEF
:1026A000984203D122F44072CB681A4322F080038F
:1026B0004C6943EA040202608B68C3620B68836260
:1026C000054B984202D0054B984201D10B69036338
:1026D0000123436110BD0000002C01400034014083
:1026E0000004004000080040000C004030B501F03C
:1026F0001F05012404FA05F3046A9C430462046A7A
:1027000001F01F0502FA05F52C43046230BD0000FC
:1027100030B5056A25F001050562026A43688469DF
:1027200024F0700424F003040D682C4322F002020C
:102730008D682A43104DA84200D103E00F4DA842F6
:1027400006D100BF22F00802CD682A4322F004021D
:10275000094DA84202D0094DA84207D123F4807345
:1027600023F400734D692B438D692B4343608461CF
:102770004D684563026230BD002C014000340140C9
:1027800030B5056A25F010050562026A4368846960
:1027900024F4E04424F440740D6844EA052422F053
:1027A00020028D6842EA0512124DA84200D103E0D2
:1027B000114DA84207D100BF22F08002CD6842EA45
:1027C000051222F040020B4DA84202D00A4DA84249
:1027D00009D123F4806323F400634D6943EA850340
:1027E0008D6943EA8503436084614D6885630262B5
:1027F00030BD0000002C01400034014030B5056AB6
:1028000025F480750562026A4368C46924F0700487
:1028100024F003040D682C4322F400728D6842EA10
:102820000522124DA84200D103E0114DA84207D164
:1028300000BF22F40062CD6842EA052222F48062E1
:102840000A4DA84202D00A4DA84209D123F4805370
:1028500023F400534D6943EA05138D6943EA0513D8
:102860004360C4614D68C563026230BD002C014005
:102870000034014030B5056A25F480550562036ACD
:102880004468C26922F4E04222F440720D6842EAD0
:10289000052223F400538D6843EA0533084DA8420E
:1028A00002D0084DA84204D124F480444D6944EA82
:1028B00085144460C2614D680564036230BD000048
:1028C000002C01400034014070B5044621680969BC
:1028D00021F44051E2681143226811612269A16824
:1028E0001143626941EA02052168C96841F20C623C
:1028F000914329432268D1602168496921F44071DC
:10290000A2691143226851612D4A2168914202D186
:10291000FEF7F2FE01E0FEF7DFFE00EBC00101EB87
:10292000001162689200B1FBF2F100EBC00202EB11
:10293000001263689B00B2FBF3F26423B2FBF3F274
:1029400002EBC20303EB0212A1EB8201322202EB83
:1029500001116422B1FBF2F101F0F00100EBC002C1
:1029600002EB001263689B00B2FBF3F26423B2FB3C
:10297000F3F201EB021200EBC00101EB00116368FE
:102980009B00B1FBF3F100EBC00303EB001366689F
:10299000B600B3FBF6F36426B3FBF6F303EBC30612
:1029A00006EB0313A1EB8301322303EB0111642334
:1029B000B1FBF3F101F00F0111442268916070BD89
:1029C000003801402DE9F04104460D46174698466F
:1029D000069E21E0701CF8B12EB1FEF751FCA0EB71
:1029E0000800B04218D92068C06820F4D07021686F
:1029F000C8602068406920F00100216848612020FB
:102A000084F83D0084F83E0000BF002084F83C00BC
:102A100000BF0320BDE8F081206800682840A8427C
:102A200001D1012000E00020B842D3D00020F1E71E
:102A300000BFFEE7490050EAC12018BF04204A0D3C
:102A400018BF40F0010040F2FF72B2EB515F08BFC7
:102A500040F00200012808BF0520704702480068C6
:102A6000C0F30220704700000CED00E010B5002814
:102A700004DB0A07130E054A135406E00A07140E76
:102A8000034A00F00F031B1FD45410BD00E400E004
:102A900018ED00E02DE9F0414F1E00EBC7010446A0
:102AA000D1E9000115461E4637F006020DD02A4630
:102AB0003346FDF7D5FB7F1E04EBC703D3E90023A4
:102AC000FDF7F6FD37F00602F1D1022F25D0042FD5
:102AD00013D0062F18BFBDE8F0812A463346FDF714
:102AE000BFFBD4E90A23FDF7E3FD2A463346FDF791
:102AF000B7FBD4E90823FDF7DBFD2A463346FDF793
:102B0000AFFBD4E90623FDF7D3FD2A463346FDF794
:102B1000A7FBD4E90423FDF7CBFD2A463346FDF796
:102B20009FFBD4E90223FDF7C3FD2A463346FDF798
:102B300097FBD4E90023BDE8F041FDF7B9BD0000E3
:102B40000022134610460149FDF7FCBB0000F03F90
:102B5000FDF7AEBD0022134610461146FDF7F2BB4D
:102B600040F2013200204FF0E041FDF748BE000086
:102B7000024A00201107FDF742BE000001FDFFFFE1
:102B800002E008C8121F08C1002AFAD17047704736
:102B9000002001E001C1121F002AFBD17047000094
:102BA00001490860704700001000002070B504461D
:102BB000204600F005F8054600F0B2F870BD0000B0
:102BC0002DE9F14F86B00698FDF734FC0190FDF732
:102BD0007BFC80460022104BFDF7B4FB4FF06632C1
:102BE0000E4BCDE90201FDF73BFB00220C4BCDE97A
:102BF0000401FDF7A7FB064600220A4BFDF730FB58
:102C00000446094A094BFDF72BFB8246FDF7A0FC61
:102C100007B0BDE8F08F000000FEAF4066660A40D6
:102C200000405A40008893409A999999999909408F
:102C30002DE9F04F89B082460E4690461D4600248D
:102C40005046FDF709FC079005E00A21079890FB24
:102C5000F1F00790641C07980028F6DC6019401C0E
:102C6000404502D909B0BDE8F08FA8EB0400401B35
:102C7000471E06EB0709781E02E030213154401E42
:102C80000028FADA5046FDF7E7FB2246494607904E
:102C900000F034F82C20E11970545046FDF7DCFBAD
:102CA0000690FDF7BEFB51460790FDF7D6FA834626
:102CB0002846FDF7C4FB02460B46CDE90001002083
:102CC0000D4900F0DFF8CDE904015846FDF7FCFBA3
:102CD000CDE90201DDE90423FDF7C2FACDE90601E1
:102CE000FDF7D3FB089009EB0400411C2A46089825
:102CF00000F004F800BFB5E70000244030B50B46F3
:102D0000511E0AE00A2490FBF4F504FB150430344C
:102D10005C540A2490FBF4F0491E0029F2DA30BD1D
:102D20002DE9F04104462046FDF7CEFB0546002282
:102D3000034BFDF795FA0746FDF70AFCBDE8F08165
:102D400000001E401FB5FEF7ADFAFFF74AFCFFF783
:102D500011FBFFF78FFBFFF709FCFFF7B1FAFFF755
:102D6000C7FBFFF7DBFA04213C48FFF7F3F800212B
:102D70003B48FFF7EFF8012291023A48FEF77AFA52
:102D800001264FF0000968E03748FEF727F837487A
:102D9000FEF724F800BF3648006800F00200002863
:102DA000F9D000BF3348006800F002000028F9D0D5
:102DB0002D48FDF7FDFE84B22C48FDF7F9FE85B2E3
:102DC0002046FFF7F3FE814624208DF808000422F8
:102DD0000DF109012846FFF791FF20208DF80D0025
:102DE0000123052269464846FFF722FF3B208DF864
:102DF00005004FF47A73062202A91F48FFF7F4F981
:102E00004FF47A73062269461B48FFF7EDF94846EE
:102E1000FDF75AFB07460022184BFDF781FB0AD845
:102E200004210E48FFF710F900224FF480610D488D
:102E3000FEF720FA002666B94846FDF745FB07462F
:102E400000220F4BFDF754FB03D800210448FFF785
:102E5000FBF80120FEF75AF800BF95E77400002048
:102E6000BC000020000C01401400002044000020A1
:102E700000240140002801400401002000006940B6
:102E8000000044402DE9F04D1D460C4698B0174611
:102E900021F0004123F00043002814BF4FF0010C43
:102EA0004FF0000C0CEB440CFE4A0CEB02064FEA10
:102EB000620C66452BD33E0018BF012606EB450683
:102EC0001644F94A964222D3F84A53EA070C02D034
:102ED000944205D148B918B000201146BDE8F08DE4
:102EE000002808BF4FF0000C01D04FF0010C0CEB94
:102EF000440212F5001F0AD8002F14BF4FF0010C36
:102F00004FF0000C0CEB450212F5001F07D918B06A
:102F10003A462B462146BDE8F04DFFF719BE002288
:102F2000DFF88CA3002CB8BF534526DADFF884C342
:102F30006345A8BF022220DADFF870C39C451CDC81
:102F4000DFF874C30CEB235CBCF1140F08DDCCF18B
:102F5000340627FA06FC0CFA06F6BE420DD108E04C
:102F60005FB9CCF1140623FA06FC0CFA06F69E4271
:102F700003D10CF00102C2F1020251EA000C19D196
:102F8000002D17DA002C18BF022A01D0012A07D021
:102F90000220FFF705FE18B0BDE8F04DFFF7D0BDE9
:102FA0000220FFF7FDFDFFF7CBFD18B081F00041D7
:102FB000BDE8F08DB7F1000C6CD1534525D104F17B
:102FC000804212F5801201BF00280020B74918B0D6
:102FD00008BFBDE8F08DB548884207DC002DA1BFD1
:102FE0006046294618B0BDE8F08D07E0281E05DAD6
:102FF00080F0004118B06046BDE8F08DAF497944DB
:10300000D1E9000118B0BDE8F08DDFF8A0C263453A
:1030100025D1002D1FDA19B1514512D1D8B909E0D7
:10302000002840F0EC82A24A214618B062F31E014B
:10303000BDE8F08D0020214618B060F31E01BDE808
:10304000F08D08DA18B02346BDE8F04D02460020A6
:103050006146FDF777B918B02146BDE8F08D5145BE
:1030600018DAB5F1804F0DD0A5F1005CBCF1FF5C22
:1030700010D1B4F1000C0DDB18B06146BDE8F04D85
:1030800000F0ECBB234618B00246BDE8F04D1946EF
:10309000FDF7E6B8060024F0004C3BD1D9B151450C
:1030A00033D1002C06DD002DA1BF0020514618B001
:1030B000BDE8F08D002C01DD002D1BDB002C13DAA8
:1030C000002D11DB012A4FF0000014BF78497C4924
:1030D00018B0BDE8F08D022A18BF002C0AD0012AD2
:1030E00008D1002C06DA0AE0002CB8BF002D11DA56
:1030F000012A04D0002018B00146BDE8F08D18B0B8
:1031000000204FF00041BDE8F08DA1F14050B0F13A
:103110007F601AD0012000EBE47050EA020421D055
:10312000624C521E4FF0000B104304BF4FF0000BD7
:10313000644C654883427CDD644A654893421FDDE8
:10314000884217DB002D25DB37E0002C00DA4AB17E
:10315000022A0CBF01204FF0FF3018B0BDE8F04D3F
:10316000FDF764BB0120FFF71BFD18B0BDE8F04D73
:10317000FFF7F0BC4D4A8A4202DC002D0ADC1CE05D
:10318000814202DA002D18DA04E0484B994220DD32
:10319000002D12DD0220FFF703FDFFF7E1FC0546DD
:1031A0000E460022534658462146FDF759F818B0FE
:1031B00066F31E012846BDE8F08D0220FFF7F0FC03
:1031C000FFF7D6FC0A46214618B062F31E01BDE89F
:1031D000F08D002230466146FDF70BFB80460E461F
:1031E0006FF00102FDF70BFB4FF05532394BFDF745
:1031F00003FB42463346FDF733F80022364BFDF71A
:10320000FBFA824642463346049110461946FDF7C2
:1032100027F85246049BFDF723F88A4600904FF0AA
:10322000C0422E4B40463146FDF71AF82C4A2B4B34
:1032300000E027E0CDE9060151460098FDF710F8BF
:1032400082460191274A284B40463146FDF708F84F
:103250005246019BFDF7CDFA82460B460246059188
:10326000DDE90601FDF724FADDE90623002688469C
:103270003046FDF7BEFA5246059BFDF7BDFA024601
:1032800000F07EB90020B1F5801F07DA3522304604
:103290006146FDF7B4FA06466FF0340000EB2150AA
:1032A00024E00000FFFF1F00FFFF0F000000F03FC1
:1032B0000000F07F0000404301FCFFFF46090000D2
:1032C0000000F0FF0000F0BF0000E0410000F0430C
:1032D000FFFFEF3F5555D53F0000E03F4715F73F53
:1032E000FE822B6544DF5DF80BAE543EA0F2FF304A
:1032F0000190C1F3130040F07F6141F04051029111
:10330000FE498842D8BF002004DDFD498142C8BF84
:10331000012001DD0D9008E000200D900198401C77
:1033200001900298A0F5801002900299F548784427
:103330000B910D9900EBC100D0E900230F933046AB
:103340000A920B99FDF755FACDE90601DDE90A214C
:1033500030460F9BFDF7ACF902460B460020EA49C8
:10336000FCF7F0FF059102460B460090DDE90601EF
:10337000FCF776FF1490E5488A464FF00008784441
:103380000299006812904FF0005040EA61010D98D8
:103390000F9B01EB804000F5002109910A9A1298D9
:1033A000FDF727FA32460B9BFDF726FA42465346B5
:1033B000FCF756FF0646029140465146099B129A79
:1033C000FCF74EFFDDE90623FDF716FA3246029BB5
:1033D000FDF70FFA059B009AFCF742FF0091149A43
:1033E0000490534610461946FCF73AFF064602463B
:1033F000C7480B46029106217844FFF74BFBCDE905
:103400000510029B324610461946FCF729FFDDE9FC
:103410000532FCF725FF05910646534640461946FE
:10342000149AFDF745F9009B049AFCF719FF324600
:10343000059BFDF73DF9CDE9051042465346104680
:103440001946FCF70DFF0022B24B02910A90FDF7DE
:103450002FF9DDE90532FDF72BF90E464246AD4B5B
:103460004046FDF7C6F9029B0A9AFDF7C2F9DDE96D
:103470000532FDF7C1F9424602910A9033461046E3
:103480005146FCF7EDFECDE906015346149A029928
:103490000A98FCF7E5FE8A460290334642460099B8
:1034A0000498FCF7DDFE5346029AFDF701F98246C7
:1034B0000B4602460591DDE90601FDF7F9F8DDE965
:1034C0000623002088460646FDF793F95246059BE1
:1034D000FDF792F9824609914FF060428E4B3046DB
:1034E0004146FCF7BDFE049006918C4A8A4B50463B
:1034F0000999FCF7B5FE82460291894A894B30460C
:103500004146FCF7ADFE5246029BFDF7D1F8864BD3
:103510007B440D9A03EBC203D3E90023FDF7C8F8FF
:103520000E9007910198FDF781F90591DDE90613E9
:1035300082460E9A0498FDF7BBF87C4A7A440D9BAC
:1035400002EBC303D3E9002300930292FDF7B0F826
:103550005246059BFDF7ACF8002688465246304699
:10356000059BFDF746F9009B029AFDF742F9069B81
:10357000049AFDF73EF9079B0E9AFDF73DF90246C6
:1035800000200B46029038462946FCF769FE824629
:1035900001912B4638461946029AFDF72AF9324620
:1035A0004346FCF75DFE5246019BFDF781F8074656
:1035B0008A463246434629460298FCF751FE0546A4
:1035C0000E463A465346FDF773F8594A88469142EB
:1035D00021DBA8EB020353EA000210D12A4633464E
:1035E000FDF707F9CDE90401524A534B38465146DD
:1035F000FDF75EF8DDE90423FCF792FF21D20220FB
:10360000FFF7CEFAFFF7ACFA0A46214618B062F38C
:103610001E01BDE8F08D494B28F000429A4210D3BC
:10362000474A08EB020353EA00027FF4C6AD2A467C
:103630003346FDF7DEF83A465346FCF771FF7FF656
:10364000BCAD0022019228F000403E493E4A01EB09
:103650002051824223DA481C4FF4801121FA00F0F5
:1036600040443A4AC0F30A517A44394BA1F2FF313F
:10367000CB4020EA0303C0F3130040F48010C1F1F3
:103680001401C84012680190B8F1000FBCBF40425D
:10369000019028463146FDF7ACF805460E462A460D
:1036A000334638465146FDF703F84FF000084246CE
:1036B000284B40460591FCF7D3FDCDE90601264A8B
:1036C000264B40460599FCF7CBFD009102902A4617
:1036D000334640460599FDF78CF83A465346FDF7C8
:1036E0008BF81F4A1F4BFCF7BBFD009B029AFCF7AF
:1036F000DFFF0746884602460B4635E08E980300FA
:103700007AB60B008E0500000000F03FC6050000F1
:10371000F40400000000084009C7EE3FFD033ADC56
:10372000F5015B14E02F3EBECC03000090030000C7
:1037300000009040FE822B654715973C00CC9040DE
:1037400000346F3F01FCFFFF0000E03FDC0200009F
:10375000FFFF0F00432EE63F396CA80C615C20BED2
:10376000EF39FAFE422EE63FDDE90601FCF7A0FF45
:10377000DDE9062305460E46FDF73BF83A4643468B
:10378000FDF73AF80F462A46334600901046194690
:10379000FCF766FD824602462E4888460B46052108
:1037A0007844FFF777F952464346FCF759FD2A461D
:1037B0003346FDF721F880468A463B462846314687
:1037C000009AFCF74DFD3B46009AFCF771FF06910D
:1037D000009000224FF0804340465146FDF709F823
:1037E0000F460C904246534628463146FCF738FDBA
:1037F0003B460C9AFCF7A6FD069B009AFCF7F9FFE6
:103800002A463346FCF7F5FF0022134BFCF7F4FF82
:10381000054601980E4601EB00510815002810DC02
:1038200028463146019AFCF7EAFFFFF703F904281E
:1038300008BFFFF79DF928463146019AFCF7DFFFE4
:1038400005460B4618B02A4658462146BDE8F04DBD
:10385000FCF706BD7C0100000000F03F2DE9F041BF
:1038600006460F46FDF727F8041E0D4618BF012037
:10387000284320F00040C0F17F6000F1E040C00F1D
:103880000ED0301C18BF0120384320F00040C0F19A
:103890007F6000F1E040C00F04BF0120FFF780F916
:1038A00020462946BDE8F08100000000000000002D
:1038B00001020304060708090000000001020304D6
:1038C000000000000000F03F000000000000F83F92
:1038D00000000000000000000000004003B8E23FCC
:1038E000000000000000000006D0CF43EBFD4C3E7E
:1038F000033333333333E33FFFAB6FDBB66DDB3F73
:103900004D268F515555D53F01411DA96074D13FBA
:1039100065DBC9934A86CD3FEF4E454A287ECA3FB4
:103920003E5555555555C53F93BDBE166CC166BF36
:103930002CDE25AF6A56113FF16BD2C541BDBBBE2F
:10394000D0A4BE726937663E00000000000000008F
:10395000703900080000002014000000802B0008CF
:10396000843900081400002034050000902B000862
:103970000000000010000000010000000024F4001E
:043980000000000043
:0400000508000131BD
:00000001FF
